{
  "_format": "hh-sol-artifact-1",
  "contractName": "Escrow",
  "sourceName": "contracts/Escrow.sol",
  "abi": [
    {
      "inputs": [
        {
          "internalType": "address",
          "name": "_freelancer",
          "type": "address"
        },
        {
          "internalType": "address",
          "name": "_arbiter",
          "type": "address"
        }
      ],
      "stateMutability": "nonpayable",
      "type": "constructor"
    },
    {
      "inputs": [],
      "name": "arbiter",
      "outputs": [
        {
          "internalType": "address",
          "name": "",
          "type": "address"
        }
      ],
      "stateMutability": "view",
      "type": "function"
    },
    {
      "inputs": [],
      "name": "buyer",
      "outputs": [
        {
          "internalType": "address",
          "name": "",
          "type": "address"
        }
      ],
      "stateMutability": "view",
      "type": "function"
    },
    {
      "inputs": [
        {
          "internalType": "uint256",
          "name": "_amount",
          "type": "uint256"
        }
      ],
      "name": "deposit",
      "outputs": [],
      "stateMutability": "nonpayable",
      "type": "function"
    },
    {
      "inputs": [],
      "name": "freelancer",
      "outputs": [
        {
          "internalType": "address",
          "name": "",
          "type": "address"
        }
      ],
      "stateMutability": "view",
      "type": "function"
    },
    {
      "inputs": [],
      "name": "refund",
      "outputs": [],
      "stateMutability": "nonpayable",
      "type": "function"
    },
    {
      "inputs": [],
      "name": "releaseFunds",
      "outputs": [],
      "stateMutability": "nonpayable",
      "type": "function"
    },
    {
      "inputs": [],
      "name": "stablecoin",
      "outputs": [
        {
          "internalType": "contract IERC20",
          "name": "",
          "type": "address"
        }
      ],
      "stateMutability": "view",
      "type": "function"
    },
    {
      "inputs": [],
      "name": "status",
      "outputs": [
        {
          "internalType": "enum Escrow.EscrowStatus",
          "name": "",
          "type": "uint8"
        }
      ],
      "stateMutability": "view",
      "type": "function"
    }
  ],
  "bytecode": "0x608060405234801561001057600080fd5b5060405161089838038061089883398101604081905261002f916100ad565b600080546001600160a01b03199081163317909155600180546001600160a01b0394851690831617905560028054929093169116179055600380546001600160a81b031916731c7d4b196cb0c7b01d743fbc6116a902379c72381790556100e0565b80516001600160a01b03811681146100a857600080fd5b919050565b600080604083850312156100c057600080fd5b6100c983610091565b91506100d760208401610091565b90509250929050565b6107a9806100ef6000396000f3fe608060405234801561001057600080fd5b50600436106100885760003560e01c8063a37dda2c1161005b578063a37dda2c146100f4578063b6b55f2514610107578063e9cbd8221461011a578063fe25e00a1461012d57600080fd5b8063200d2ed21461008d578063590e1ae3146100b757806369d89575146100c15780637150d8ae146100c9575b600080fd5b6003546100a190600160a01b900460ff1681565b6040516100ae91906106f0565b60405180910390f35b6100bf610140565b005b6100bf61034a565b6000546100dc906001600160a01b031681565b6040516001600160a01b0390911681526020016100ae565b6001546100dc906001600160a01b031681565b6100bf610115366004610718565b61054f565b6003546100dc906001600160a01b031681565b6002546100dc906001600160a01b031681565b600160038054600160a01b900460ff1690811115610160576101606106da565b146101aa5760405162461bcd60e51b81526020600482015260156024820152744e6f74206177616974696e672064656c697665727960581b60448201526064015b60405180910390fd5b6000546001600160a01b03163314806101cd57506002546001600160a01b031633145b61020a5760405162461bcd60e51b815260206004820152600e60248201526d139bdd08185d5d1a1bdc9a5e995960921b60448201526064016101a1565b6003546040516370a0823160e01b81523060048201526000916001600160a01b0316906370a0823190602401602060405180830381865afa158015610253573d6000803e3d6000fd5b505050506040513d601f19601f820116820180604052508101906102779190610731565b60035460005460405163a9059cbb60e01b81526001600160a01b03918216600482015260248101849052929350169063a9059cbb906044016020604051808303816000875af11580156102ce573d6000803e3d6000fd5b505050506040513d601f19601f820116820180604052508101906102f2919061074a565b61032e5760405162461bcd60e51b815260206004820152600d60248201526c1499599d5b990819985a5b1959609a1b60448201526064016101a1565b60038054819060ff60a01b1916600160a01b825b021790555050565b600160038054600160a01b900460ff169081111561036a5761036a6106da565b146103af5760405162461bcd60e51b81526020600482015260156024820152744e6f74206177616974696e672064656c697665727960581b60448201526064016101a1565b6000546001600160a01b03163314806103d257506002546001600160a01b031633145b61040f5760405162461bcd60e51b815260206004820152600e60248201526d139bdd08185d5d1a1bdc9a5e995960921b60448201526064016101a1565b6003546040516370a0823160e01b81523060048201526000916001600160a01b0316906370a0823190602401602060405180830381865afa158015610458573d6000803e3d6000fd5b505050506040513d601f19601f8201168201806040525081019061047c9190610731565b60035460015460405163a9059cbb60e01b81526001600160a01b03918216600482015260248101849052929350169063a9059cbb906044016020604051808303816000875af11580156104d3573d6000803e3d6000fd5b505050506040513d601f19601f820116820180604052508101906104f7919061074a565b6105355760405162461bcd60e51b815260206004820152600f60248201526e151c985b9cd9995c8819985a5b1959608a1b60448201526064016101a1565b600380546002919060ff60a01b1916600160a01b83610342565b600060038054600160a01b900460ff169081111561056f5761056f6106da565b146105b05760405162461bcd60e51b8152602060048201526011602482015270105b1c9958591e481a5b9a5d1a585d1959607a1b60448201526064016101a1565b6000546001600160a01b031633146106035760405162461bcd60e51b815260206004820152601660248201527513db9b1e48189d5e595c8818d85b8819195c1bdcda5d60521b60448201526064016101a1565b6003546000546040516323b872dd60e01b81526001600160a01b039182166004820152306024820152604481018490529116906323b872dd906064016020604051808303816000875af115801561065e573d6000803e3d6000fd5b505050506040513d601f19601f82011682018060405250810190610682919061074a565b6106c05760405162461bcd60e51b815260206004820152600f60248201526e151c985b9cd9995c8819985a5b1959608a1b60448201526064016101a1565b600380546001919060ff60a01b1916600160a01b83610342565b634e487b7160e01b600052602160045260246000fd5b602081016004831061071257634e487b7160e01b600052602160045260246000fd5b91905290565b60006020828403121561072a57600080fd5b5035919050565b60006020828403121561074357600080fd5b5051919050565b60006020828403121561075c57600080fd5b8151801515811461076c57600080fd5b939250505056fea2646970667358221220919198307ef271f90895af2bb336d7635e4fda650d977932978a773a33951b4864736f6c63430008140033",
  "linkReferences": {},
  "deployedLinkReferences": {}
}